{
  "address": "0xCf7Ed3AccA5a467e9e704C703E8D87F634fB0Fc9",
  "abi": [
    {
      "anonymous": false,
      "inputs": [
        {
          "indexed": true,
          "internalType": "uint256",
          "name": "newValue",
          "type": "uint256"
        }
      ],
      "name": "ValueChanged",
      "type": "event"
    },
    {
      "inputs": [],
      "name": "increment",
      "outputs": [],
      "stateMutability": "nonpayable",
      "type": "function"
    },
    {
      "inputs": [],
      "name": "retrieve",
      "outputs": [
        {
          "internalType": "uint256",
          "name": "",
          "type": "uint256"
        }
      ],
      "stateMutability": "view",
      "type": "function"
    },
    {
      "inputs": [
        {
          "internalType": "uint256",
          "name": "newValue",
          "type": "uint256"
        }
      ],
      "name": "store",
      "outputs": [],
      "stateMutability": "nonpayable",
      "type": "function"
    },
    {
      "inputs": [],
      "name": "version",
      "outputs": [
        {
          "internalType": "uint256",
          "name": "",
          "type": "uint256"
        }
      ],
      "stateMutability": "pure",
      "type": "function"
    }
  ],
  "transactionHash": "0x221c9e8e873c7fd84059d1c72a8b6056fc158b5f3626f5779e2d33ebdc091cff",
  "args": [],
  "numDeployments": 1,
  "solcInputHash": "544b0540dbd9fdce2fc5480dc03a5d7a",
  "bytecode": "0x608060405234801561001057600080fd5b50610266806100206000396000f3fe608060405234801561001057600080fd5b506004361061004c5760003560e01c80632e64cec11461005157806354fd4d501461006f5780636057361d1461008d578063d09de08a146100a9575b600080fd5b6100596100b3565b6040516100669190610132565b60405180910390f35b6100776100bc565b6040516100849190610132565b60405180910390f35b6100a760048036038101906100a2919061017e565b6100c5565b005b6100b16100cf565b005b60008054905090565b60006002905090565b8060008190555050565b60356000808282546100e191906101da565b925050819055506000547f93fe6d397c74fdf1402a8b72e47b68512f0510d7b98a4bc4cbdf6ac7108b3c5960405160405180910390a2565b6000819050919050565b61012c81610119565b82525050565b60006020820190506101476000830184610123565b92915050565b600080fd5b61015b81610119565b811461016657600080fd5b50565b60008135905061017881610152565b92915050565b6000602082840312156101945761019361014d565b5b60006101a284828501610169565b91505092915050565b7f4e487b7100000000000000000000000000000000000000000000000000000000600052601160045260246000fd5b60006101e582610119565b91506101f083610119565b9250827fffffffffffffffffffffffffffffffffffffffffffffffffffffffffffffffff03821115610225576102246101ab565b5b82820190509291505056fea2646970667358221220dbd5ebe18e33cdaeaec617e41bb94dd99017e9da00dee9393124d4d6a1a5c64e64736f6c63430008080033",
  "devdoc": {
    "kind": "dev",
    "methods": {},
    "version": 1
  },
  "userdoc": {
    "kind": "user",
    "methods": {},
    "version": 1
  },
  "storageLayout": {
    "storage": [
      {
        "astId": 38,
        "contract": "contracts/BoxV2.sol:BoxV2",
        "label": "value",
        "offset": 0,
        "slot": "0",
        "type": "t_uint256"
      }
    ],
    "types": {
      "t_uint256": {
        "encoding": "inplace",
        "label": "uint256",
        "numberOfBytes": "32"
      }
    }
  }
}