{
  "_format": "hh-sol-artifact-1",
  "contractName": "Raffle",
  "sourceName": "contracts/Raffle.sol",
  "abi": [
    {
      "inputs": [
        {
          "internalType": "address",
          "name": "vrfCoordinatorV2",
          "type": "address"
        },
        {
          "internalType": "uint256",
          "name": "entranceFee",
          "type": "uint256"
        },
        {
          "internalType": "bytes32",
          "name": "gasLane",
          "type": "bytes32"
        },
        {
          "internalType": "uint64",
          "name": "subscriptionId",
          "type": "uint64"
        },
        {
          "internalType": "uint32",
          "name": "callbackGasLimit",
          "type": "uint32"
        },
        {
          "internalType": "uint256",
          "name": "intervall",
          "type": "uint256"
        }
      ],
      "stateMutability": "nonpayable",
      "type": "constructor"
    },
    {
      "inputs": [
        {
          "internalType": "address",
          "name": "have",
          "type": "address"
        },
        {
          "internalType": "address",
          "name": "want",
          "type": "address"
        }
      ],
      "name": "OnlyCoordinatorCanFulfill",
      "type": "error"
    },
    {
      "inputs": [],
      "name": "Raffle__NOTOPEN",
      "type": "error"
    },
    {
      "inputs": [],
      "name": "Raffle__NotEnoughFee",
      "type": "error"
    },
    {
      "inputs": [],
      "name": "Raffle__TransferFailed",
      "type": "error"
    },
    {
      "inputs": [
        {
          "internalType": "uint256",
          "name": "currentBalance",
          "type": "uint256"
        },
        {
          "internalType": "uint256",
          "name": "playerNumber",
          "type": "uint256"
        },
        {
          "internalType": "uint256",
          "name": "raffle_state_in_number",
          "type": "uint256"
        }
      ],
      "name": "Raffle__UpkeepNotNeeded",
      "type": "error"
    },
    {
      "anonymous": false,
      "inputs": [
        {
          "indexed": true,
          "internalType": "address",
          "name": "player",
          "type": "address"
        }
      ],
      "name": "RaffleEnter",
      "type": "event"
    },
    {
      "anonymous": false,
      "inputs": [
        {
          "indexed": true,
          "internalType": "uint256",
          "name": "requestId",
          "type": "uint256"
        }
      ],
      "name": "RequestedRaffleWinner",
      "type": "event"
    },
    {
      "anonymous": false,
      "inputs": [
        {
          "indexed": true,
          "internalType": "address",
          "name": "winner",
          "type": "address"
        }
      ],
      "name": "WinnerPicked",
      "type": "event"
    },
    {
      "inputs": [
        {
          "internalType": "bytes",
          "name": "",
          "type": "bytes"
        }
      ],
      "name": "checkUpkeep",
      "outputs": [
        {
          "internalType": "bool",
          "name": "upkeepNeeded",
          "type": "bool"
        },
        {
          "internalType": "bytes",
          "name": "",
          "type": "bytes"
        }
      ],
      "stateMutability": "nonpayable",
      "type": "function"
    },
    {
      "inputs": [],
      "name": "enterRaffle",
      "outputs": [],
      "stateMutability": "payable",
      "type": "function"
    },
    {
      "inputs": [],
      "name": "getEntranceFee",
      "outputs": [
        {
          "internalType": "uint256",
          "name": "",
          "type": "uint256"
        }
      ],
      "stateMutability": "view",
      "type": "function"
    },
    {
      "inputs": [],
      "name": "getInterval",
      "outputs": [
        {
          "internalType": "uint256",
          "name": "",
          "type": "uint256"
        }
      ],
      "stateMutability": "view",
      "type": "function"
    },
    {
      "inputs": [],
      "name": "getLastTimeStamp",
      "outputs": [
        {
          "internalType": "uint256",
          "name": "",
          "type": "uint256"
        }
      ],
      "stateMutability": "view",
      "type": "function"
    },
    {
      "inputs": [],
      "name": "getNumWords",
      "outputs": [
        {
          "internalType": "uint256",
          "name": "",
          "type": "uint256"
        }
      ],
      "stateMutability": "pure",
      "type": "function"
    },
    {
      "inputs": [],
      "name": "getNumberOfPlayers",
      "outputs": [
        {
          "internalType": "uint256",
          "name": "",
          "type": "uint256"
        }
      ],
      "stateMutability": "view",
      "type": "function"
    },
    {
      "inputs": [
        {
          "internalType": "uint256",
          "name": "index",
          "type": "uint256"
        }
      ],
      "name": "getPlayer",
      "outputs": [
        {
          "internalType": "address",
          "name": "",
          "type": "address"
        }
      ],
      "stateMutability": "view",
      "type": "function"
    },
    {
      "inputs": [],
      "name": "getRaffleState",
      "outputs": [
        {
          "internalType": "enum Raffle.RaffleState",
          "name": "",
          "type": "uint8"
        }
      ],
      "stateMutability": "view",
      "type": "function"
    },
    {
      "inputs": [],
      "name": "getRecentWinner",
      "outputs": [
        {
          "internalType": "address",
          "name": "",
          "type": "address"
        }
      ],
      "stateMutability": "view",
      "type": "function"
    },
    {
      "inputs": [],
      "name": "getRequestConfirmations",
      "outputs": [
        {
          "internalType": "uint256",
          "name": "",
          "type": "uint256"
        }
      ],
      "stateMutability": "pure",
      "type": "function"
    },
    {
      "inputs": [],
      "name": "getSubscriptionId",
      "outputs": [
        {
          "internalType": "uint64",
          "name": "",
          "type": "uint64"
        }
      ],
      "stateMutability": "view",
      "type": "function"
    },
    {
      "inputs": [
        {
          "internalType": "bytes",
          "name": "",
          "type": "bytes"
        }
      ],
      "name": "performUpkeep",
      "outputs": [],
      "stateMutability": "nonpayable",
      "type": "function"
    },
    {
      "inputs": [
        {
          "internalType": "uint256",
          "name": "requestId",
          "type": "uint256"
        },
        {
          "internalType": "uint256[]",
          "name": "randomWords",
          "type": "uint256[]"
        }
      ],
      "name": "rawFulfillRandomWords",
      "outputs": [],
      "stateMutability": "nonpayable",
      "type": "function"
    }
  ],
  "bytecode": "0x6101606040523480156200001257600080fd5b50604051620018b3380380620018b3833981810160405281019062000038919062000294565b858073ffffffffffffffffffffffffffffffffffffffff1660808173ffffffffffffffffffffffffffffffffffffffff1681525050508460a081815250508573ffffffffffffffffffffffffffffffffffffffff1660c08173ffffffffffffffffffffffffffffffffffffffff16815250508360e081815250508267ffffffffffffffff166101008167ffffffffffffffff16815250508163ffffffff166101208163ffffffff16815250506000600160146101000a81548160ff021916908360018111156200010d576200010c62000330565b5b0217905550426002819055508061014081815250505050505050506200035f565b600080fd5b600073ffffffffffffffffffffffffffffffffffffffff82169050919050565b6000620001608262000133565b9050919050565b620001728162000153565b81146200017e57600080fd5b50565b600081519050620001928162000167565b92915050565b6000819050919050565b620001ad8162000198565b8114620001b957600080fd5b50565b600081519050620001cd81620001a2565b92915050565b6000819050919050565b620001e881620001d3565b8114620001f457600080fd5b50565b6000815190506200020881620001dd565b92915050565b600067ffffffffffffffff82169050919050565b6200022d816200020e565b81146200023957600080fd5b50565b6000815190506200024d8162000222565b92915050565b600063ffffffff82169050919050565b6200026e8162000253565b81146200027a57600080fd5b50565b6000815190506200028e8162000263565b92915050565b60008060008060008060c08789031215620002b457620002b36200012e565b5b6000620002c489828a0162000181565b9650506020620002d789828a01620001bc565b9550506040620002ea89828a01620001f7565b9450506060620002fd89828a016200023c565b93505060806200031089828a016200027d565b92505060a06200032389828a01620001bc565b9150509295509295509295565b7f4e487b7100000000000000000000000000000000000000000000000000000000600052602160045260246000fd5b60805160a05160c05160e0516101005161012051610140516114dd620003d6600039600081816108220152610890015260006106e10152600081816106be01526108c20152600061069d01526000610661015260008181610340015261043d01526000818161037d01526103d101526114dd6000f3fe6080604052600436106100dd5760003560e01c80635f1b0fd81161007f578063c1c244e811610059578063c1c244e81461027e578063de3d9fb7146102a9578063e55ae4e8146102d4578063fd6673f514610311576100dd565b80635f1b0fd8146101ea5780636e04ff0d1461021557806391ad27b414610253576100dd565b80632cfcc539116100bb5780632cfcc539146101615780634585e33b1461016b578063473f1ddc1461019457806353a2c19a146101bf576100dd565b806309bc33a7146100e2578063115cbaf51461010d5780631fe543e314610138575b600080fd5b3480156100ee57600080fd5b506100f761033c565b6040516101049190610c4c565b60405180910390f35b34801561011957600080fd5b50610122610364565b60405161012f9190610cde565b60405180910390f35b34801561014457600080fd5b5061015f600480360381019061015a9190610e92565b61037b565b005b61016961043b565b005b34801561017757600080fd5b50610192600480360381019061018d9190610f49565b6105aa565b005b3480156101a057600080fd5b506101a961079a565b6040516101b69190610fd7565b60405180910390f35b3480156101cb57600080fd5b506101d46107c4565b6040516101e19190610c4c565b60405180910390f35b3480156101f657600080fd5b506101ff6107d3565b60405161020c9190610c4c565b60405180910390f35b34801561022157600080fd5b5061023c600480360381019061023791906110a7565b6107e0565b60405161024a92919061118a565b60405180910390f35b34801561025f57600080fd5b5061026861088c565b6040516102759190610c4c565b60405180910390f35b34801561028a57600080fd5b506102936108b4565b6040516102a09190610c4c565b60405180910390f35b3480156102b557600080fd5b506102be6108be565b6040516102cb91906111dd565b60405180910390f35b3480156102e057600080fd5b506102fb60048036038101906102f691906111f8565b6108e6565b6040516103089190610fd7565b60405180910390f35b34801561031d57600080fd5b5061032661092d565b6040516103339190610c4c565b60405180910390f35b60007f0000000000000000000000000000000000000000000000000000000000000000905090565b6000600160149054906101000a900460ff16905090565b7f000000000000000000000000000000000000000000000000000000000000000073ffffffffffffffffffffffffffffffffffffffff163373ffffffffffffffffffffffffffffffffffffffff161461042d57337f00000000000000000000000000000000000000000000000000000000000000006040517f1cf993f4000000000000000000000000000000000000000000000000000000008152600401610424929190611225565b60405180910390fd5b6104378282610939565b5050565b7f0000000000000000000000000000000000000000000000000000000000000000341015610495576040517f046d209600000000000000000000000000000000000000000000000000000000815260040160405180910390fd5b600060018111156104a9576104a8610c67565b5b600160149054906101000a900460ff1660018111156104cb576104ca610c67565b5b14610502576040517f5731c74000000000000000000000000000000000000000000000000000000000815260040160405180910390fd5b6000339080600181540180825580915050600190039060005260206000200160009091909190916101000a81548173ffffffffffffffffffffffffffffffffffffffff021916908373ffffffffffffffffffffffffffffffffffffffff1602179055503373ffffffffffffffffffffffffffffffffffffffff167f0805e1d667bddb8a95f0f09880cf94f403fb596ce79928d9f29b74203ba284d460405160405180910390a2565b60006105c4604051806020016040528060008152506107e0565b509050806106335747600080549050600160149054906101000a900460ff1660018111156105f5576105f4610c67565b5b6040517f584327aa00000000000000000000000000000000000000000000000000000000815260040161062a9392919061124e565b60405180910390fd5b60018060146101000a81548160ff0219169083600181111561065857610657610c67565b5b021790555060007f000000000000000000000000000000000000000000000000000000000000000073ffffffffffffffffffffffffffffffffffffffff16635d3b1d307f00000000000000000000000000000000000000000000000000000000000000007f000000000000000000000000000000000000000000000000000000000000000060037f000000000000000000000000000000000000000000000000000000000000000060016040518663ffffffff1660e01b81526004016107229594939291906112da565b6020604051808303816000875af1158015610741573d6000803e3d6000fd5b505050506040513d601f19601f820116820180604052508101906107659190611342565b9050807fcd6e45c8998311cab7e9d4385596cac867e20a0587194b954fa3a731c93ce78b60405160405180910390a250505050565b6000600160009054906101000a900473ffffffffffffffffffffffffffffffffffffffff16905090565b6000600163ffffffff16905090565b6000600361ffff16905090565b6000606060008060018111156107f9576107f8610c67565b5b600160149054906101000a900460ff16600181111561081b5761081a610c67565b5b14905060007f00000000000000000000000000000000000000000000000000000000000000006002544261084f919061139e565b1190506000806000805490501190506000804711905083801561086f5750825b80156108785750815b80156108815750805b955050505050915091565b60007f0000000000000000000000000000000000000000000000000000000000000000905090565b6000600254905090565b60007f0000000000000000000000000000000000000000000000000000000000000000905090565b60008082815481106108fb576108fa6113d2565b5b9060005260206000200160009054906101000a900473ffffffffffffffffffffffffffffffffffffffff169050919050565b60008080549050905090565b6000808054905082600081518110610954576109536113d2565b5b60200260200101516109669190611430565b9050600080828154811061097d5761097c6113d2565b5b9060005260206000200160009054906101000a900473ffffffffffffffffffffffffffffffffffffffff16905080600160006101000a81548173ffffffffffffffffffffffffffffffffffffffff021916908373ffffffffffffffffffffffffffffffffffffffff16021790555060008173ffffffffffffffffffffffffffffffffffffffff1647604051610a1190611492565b60006040518083038185875af1925050503d8060008114610a4e576040519150601f19603f3d011682016040523d82523d6000602084013e610a53565b606091505b5050905080610a8e576040517fa1d04b3900000000000000000000000000000000000000000000000000000000815260040160405180910390fd5b600160009054906101000a900473ffffffffffffffffffffffffffffffffffffffff1673ffffffffffffffffffffffffffffffffffffffff167f5b690ec4a06fe979403046eaeea5b3ce38524683c3001f662c8b5a829632f7df60405160405180910390a2600067ffffffffffffffff811115610b0e57610b0d610d4f565b5b604051908082528060200260200182016040528015610b3c5781602001602082028036833780820191505090505b5060009080519060200190610b52929190610b8c565b506000600160146101000a81548160ff02191690836001811115610b7957610b78610c67565b5b0217905550426002819055505050505050565b828054828255906000526020600020908101928215610c05579160200282015b82811115610c045782518260006101000a81548173ffffffffffffffffffffffffffffffffffffffff021916908373ffffffffffffffffffffffffffffffffffffffff16021790555091602001919060010190610bac565b5b509050610c129190610c16565b5090565b5b80821115610c2f576000816000905550600101610c17565b5090565b6000819050919050565b610c4681610c33565b82525050565b6000602082019050610c616000830184610c3d565b92915050565b7f4e487b7100000000000000000000000000000000000000000000000000000000600052602160045260246000fd5b60028110610ca757610ca6610c67565b5b50565b6000819050610cb882610c96565b919050565b6000610cc882610caa565b9050919050565b610cd881610cbd565b82525050565b6000602082019050610cf36000830184610ccf565b92915050565b6000604051905090565b600080fd5b600080fd5b610d1681610c33565b8114610d2157600080fd5b50565b600081359050610d3381610d0d565b92915050565b600080fd5b6000601f19601f8301169050919050565b7f4e487b7100000000000000000000000000000000000000000000000000000000600052604160045260246000fd5b610d8782610d3e565b810181811067ffffffffffffffff82111715610da657610da5610d4f565b5b80604052505050565b6000610db9610cf9565b9050610dc58282610d7e565b919050565b600067ffffffffffffffff821115610de557610de4610d4f565b5b602082029050602081019050919050565b600080fd5b6000610e0e610e0984610dca565b610daf565b90508083825260208201905060208402830185811115610e3157610e30610df6565b5b835b81811015610e5a5780610e468882610d24565b845260208401935050602081019050610e33565b5050509392505050565b600082601f830112610e7957610e78610d39565b5b8135610e89848260208601610dfb565b91505092915050565b60008060408385031215610ea957610ea8610d03565b5b6000610eb785828601610d24565b925050602083013567ffffffffffffffff811115610ed857610ed7610d08565b5b610ee485828601610e64565b9150509250929050565b600080fd5b60008083601f840112610f0957610f08610d39565b5b8235905067ffffffffffffffff811115610f2657610f25610eee565b5b602083019150836001820283011115610f4257610f41610df6565b5b9250929050565b60008060208385031215610f6057610f5f610d03565b5b600083013567ffffffffffffffff811115610f7e57610f7d610d08565b5b610f8a85828601610ef3565b92509250509250929050565b600073ffffffffffffffffffffffffffffffffffffffff82169050919050565b6000610fc182610f96565b9050919050565b610fd181610fb6565b82525050565b6000602082019050610fec6000830184610fc8565b92915050565b600080fd5b600067ffffffffffffffff82111561101257611011610d4f565b5b61101b82610d3e565b9050602081019050919050565b82818337600083830152505050565b600061104a61104584610ff7565b610daf565b90508281526020810184848401111561106657611065610ff2565b5b611071848285611028565b509392505050565b600082601f83011261108e5761108d610d39565b5b813561109e848260208601611037565b91505092915050565b6000602082840312156110bd576110bc610d03565b5b600082013567ffffffffffffffff8111156110db576110da610d08565b5b6110e784828501611079565b91505092915050565b60008115159050919050565b611105816110f0565b82525050565b600081519050919050565b600082825260208201905092915050565b60005b8381101561114557808201518184015260208101905061112a565b60008484015250505050565b600061115c8261110b565b6111668185611116565b9350611176818560208601611127565b61117f81610d3e565b840191505092915050565b600060408201905061119f60008301856110fc565b81810360208301526111b18184611151565b90509392505050565b600067ffffffffffffffff82169050919050565b6111d7816111ba565b82525050565b60006020820190506111f260008301846111ce565b92915050565b60006020828403121561120e5761120d610d03565b5b600061121c84828501610d24565b91505092915050565b600060408201905061123a6000830185610fc8565b6112476020830184610fc8565b9392505050565b60006060820190506112636000830186610c3d565b6112706020830185610c3d565b61127d6040830184610c3d565b949350505050565b6000819050919050565b61129881611285565b82525050565b600061ffff82169050919050565b6112b58161129e565b82525050565b600063ffffffff82169050919050565b6112d4816112bb565b82525050565b600060a0820190506112ef600083018861128f565b6112fc60208301876111ce565b61130960408301866112ac565b61131660608301856112cb565b61132360808301846112cb565b9695505050505050565b60008151905061133c81610d0d565b92915050565b60006020828403121561135857611357610d03565b5b60006113668482850161132d565b91505092915050565b7f4e487b7100000000000000000000000000000000000000000000000000000000600052601160045260246000fd5b60006113a982610c33565b91506113b483610c33565b92508282039050818111156113cc576113cb61136f565b5b92915050565b7f4e487b7100000000000000000000000000000000000000000000000000000000600052603260045260246000fd5b7f4e487b7100000000000000000000000000000000000000000000000000000000600052601260045260246000fd5b600061143b82610c33565b915061144683610c33565b92508261145657611455611401565b5b828206905092915050565b600081905092915050565b50565b600061147c600083611461565b91506114878261146c565b600082019050919050565b600061149d8261146f565b915081905091905056fea2646970667358221220aedad8486050ce0c53336e6d73db94958040b93144553ac44c2fd1f452bb29f864736f6c63430008110033",
  "linkReferences": {},
  "deployedLinkReferences": {}
}