{
  "_format": "hh-sol-artifact-1",
  "contractName": "Raffle",
  "sourceName": "contracts/Raffle.sol",
  "abi": [
    {
      "inputs": [
        {
          "internalType": "address",
          "name": "vrfCoordinatorV2",
          "type": "address"
        },
        {
          "internalType": "uint256",
          "name": "entranceFee",
          "type": "uint256"
        },
        {
          "internalType": "bytes32",
          "name": "gasLane",
          "type": "bytes32"
        },
        {
          "internalType": "uint64",
          "name": "subscriptionId",
          "type": "uint64"
        },
        {
          "internalType": "uint32",
          "name": "callbackGasLimit",
          "type": "uint32"
        },
        {
          "internalType": "uint256",
          "name": "intervall",
          "type": "uint256"
        }
      ],
      "stateMutability": "nonpayable",
      "type": "constructor"
    },
    {
      "inputs": [
        {
          "internalType": "address",
          "name": "have",
          "type": "address"
        },
        {
          "internalType": "address",
          "name": "want",
          "type": "address"
        }
      ],
      "name": "OnlyCoordinatorCanFulfill",
      "type": "error"
    },
    {
      "inputs": [],
      "name": "Raffle__NOTOPEN",
      "type": "error"
    },
    {
      "inputs": [],
      "name": "Raffle__NotEnoughFee",
      "type": "error"
    },
    {
      "inputs": [],
      "name": "Raffle__TransferFailed",
      "type": "error"
    },
    {
      "inputs": [
        {
          "internalType": "uint256",
          "name": "currentBalance",
          "type": "uint256"
        },
        {
          "internalType": "uint256",
          "name": "playerNumber",
          "type": "uint256"
        },
        {
          "internalType": "uint256",
          "name": "raffle_state_in_number",
          "type": "uint256"
        }
      ],
      "name": "Raffle__UpkeepNotNeeded",
      "type": "error"
    },
    {
      "anonymous": false,
      "inputs": [
        {
          "indexed": true,
          "internalType": "address",
          "name": "player",
          "type": "address"
        }
      ],
      "name": "RaffleEnter",
      "type": "event"
    },
    {
      "anonymous": false,
      "inputs": [
        {
          "indexed": true,
          "internalType": "uint256",
          "name": "requestId",
          "type": "uint256"
        }
      ],
      "name": "RequestedRaffleWinner",
      "type": "event"
    },
    {
      "anonymous": false,
      "inputs": [
        {
          "indexed": true,
          "internalType": "address",
          "name": "winner",
          "type": "address"
        }
      ],
      "name": "WinnerPicked",
      "type": "event"
    },
    {
      "inputs": [
        {
          "internalType": "bytes",
          "name": "",
          "type": "bytes"
        }
      ],
      "name": "checkUpkeep",
      "outputs": [
        {
          "internalType": "bool",
          "name": "upkeepNeeded",
          "type": "bool"
        },
        {
          "internalType": "bytes",
          "name": "",
          "type": "bytes"
        }
      ],
      "stateMutability": "nonpayable",
      "type": "function"
    },
    {
      "inputs": [],
      "name": "enterRaffle",
      "outputs": [],
      "stateMutability": "payable",
      "type": "function"
    },
    {
      "inputs": [],
      "name": "getBalanceOfContract",
      "outputs": [
        {
          "internalType": "uint256",
          "name": "",
          "type": "uint256"
        }
      ],
      "stateMutability": "view",
      "type": "function"
    },
    {
      "inputs": [],
      "name": "getEntranceFee",
      "outputs": [
        {
          "internalType": "uint256",
          "name": "",
          "type": "uint256"
        }
      ],
      "stateMutability": "view",
      "type": "function"
    },
    {
      "inputs": [],
      "name": "getInterval",
      "outputs": [
        {
          "internalType": "uint256",
          "name": "",
          "type": "uint256"
        }
      ],
      "stateMutability": "view",
      "type": "function"
    },
    {
      "inputs": [],
      "name": "getLastTimeStamp",
      "outputs": [
        {
          "internalType": "uint256",
          "name": "",
          "type": "uint256"
        }
      ],
      "stateMutability": "view",
      "type": "function"
    },
    {
      "inputs": [],
      "name": "getNumWords",
      "outputs": [
        {
          "internalType": "uint256",
          "name": "",
          "type": "uint256"
        }
      ],
      "stateMutability": "pure",
      "type": "function"
    },
    {
      "inputs": [],
      "name": "getNumberOfPlayers",
      "outputs": [
        {
          "internalType": "uint256",
          "name": "",
          "type": "uint256"
        }
      ],
      "stateMutability": "view",
      "type": "function"
    },
    {
      "inputs": [
        {
          "internalType": "uint256",
          "name": "index",
          "type": "uint256"
        }
      ],
      "name": "getPlayer",
      "outputs": [
        {
          "internalType": "address",
          "name": "",
          "type": "address"
        }
      ],
      "stateMutability": "view",
      "type": "function"
    },
    {
      "inputs": [],
      "name": "getPlayersLength",
      "outputs": [
        {
          "internalType": "uint256",
          "name": "",
          "type": "uint256"
        }
      ],
      "stateMutability": "view",
      "type": "function"
    },
    {
      "inputs": [],
      "name": "getRaffleState",
      "outputs": [
        {
          "internalType": "enum Raffle.RaffleState",
          "name": "",
          "type": "uint8"
        }
      ],
      "stateMutability": "view",
      "type": "function"
    },
    {
      "inputs": [],
      "name": "getRecentWinner",
      "outputs": [
        {
          "internalType": "address",
          "name": "",
          "type": "address"
        }
      ],
      "stateMutability": "view",
      "type": "function"
    },
    {
      "inputs": [],
      "name": "getRequestConfirmations",
      "outputs": [
        {
          "internalType": "uint256",
          "name": "",
          "type": "uint256"
        }
      ],
      "stateMutability": "pure",
      "type": "function"
    },
    {
      "inputs": [],
      "name": "getSubscriptionId",
      "outputs": [
        {
          "internalType": "uint64",
          "name": "",
          "type": "uint64"
        }
      ],
      "stateMutability": "view",
      "type": "function"
    },
    {
      "inputs": [
        {
          "internalType": "bytes",
          "name": "",
          "type": "bytes"
        }
      ],
      "name": "performUpkeep",
      "outputs": [],
      "stateMutability": "nonpayable",
      "type": "function"
    },
    {
      "inputs": [
        {
          "internalType": "uint256",
          "name": "requestId",
          "type": "uint256"
        },
        {
          "internalType": "uint256[]",
          "name": "randomWords",
          "type": "uint256[]"
        }
      ],
      "name": "rawFulfillRandomWords",
      "outputs": [],
      "stateMutability": "nonpayable",
      "type": "function"
    }
  ],
  "bytecode": "0x6101606040523480156200001257600080fd5b506040516200193338038062001933833981810160405281019062000038919062000294565b858073ffffffffffffffffffffffffffffffffffffffff1660808173ffffffffffffffffffffffffffffffffffffffff1681525050508460a081815250508573ffffffffffffffffffffffffffffffffffffffff1660c08173ffffffffffffffffffffffffffffffffffffffff16815250508360e081815250508267ffffffffffffffff166101008167ffffffffffffffff16815250508163ffffffff166101208163ffffffff16815250506000600160146101000a81548160ff021916908360018111156200010d576200010c62000330565b5b0217905550426002819055508061014081815250505050505050506200035f565b600080fd5b600073ffffffffffffffffffffffffffffffffffffffff82169050919050565b6000620001608262000133565b9050919050565b620001728162000153565b81146200017e57600080fd5b50565b600081519050620001928162000167565b92915050565b6000819050919050565b620001ad8162000198565b8114620001b957600080fd5b50565b600081519050620001cd81620001a2565b92915050565b6000819050919050565b620001e881620001d3565b8114620001f457600080fd5b50565b6000815190506200020881620001dd565b92915050565b600067ffffffffffffffff82169050919050565b6200022d816200020e565b81146200023957600080fd5b50565b6000815190506200024d8162000222565b92915050565b600063ffffffff82169050919050565b6200026e8162000253565b81146200027a57600080fd5b50565b6000815190506200028e8162000263565b92915050565b60008060008060008060c08789031215620002b457620002b36200012e565b5b6000620002c489828a0162000181565b9650506020620002d789828a01620001bc565b9550506040620002ea89828a01620001f7565b9450506060620002fd89828a016200023c565b93505060806200031089828a016200027d565b92505060a06200032389828a01620001bc565b9150509295509295509295565b7f4e487b7100000000000000000000000000000000000000000000000000000000600052602160045260246000fd5b60805160a05160c05160e05161010051610120516101405161155d620003d660003960008181610896015261090401526000610755015260008181610732015261094201526000610711015260006106d50152600081816103ac01526104b10152600081816103e9015261043d015261155d6000f3fe6080604052600436106100f35760003560e01c80635f1b0fd81161008a578063cd61386d11610059578063cd61386d146102ea578063de3d9fb714610315578063e55ae4e814610340578063fd6673f51461037d576100f3565b80635f1b0fd81461022b5780636e04ff0d1461025657806391ad27b414610294578063c1c244e8146102bf576100f3565b80632cfcc539116100c65780632cfcc539146101a25780634585e33b146101ac578063473f1ddc146101d557806353a2c19a14610200576100f3565b806309bc33a7146100f8578063115cbaf5146101235780631fe543e31461014e5780632296888514610177575b600080fd5b34801561010457600080fd5b5061010d6103a8565b60405161011a9190610ccc565b60405180910390f35b34801561012f57600080fd5b506101386103d0565b6040516101459190610d5e565b60405180910390f35b34801561015a57600080fd5b5061017560048036038101906101709190610f12565b6103e7565b005b34801561018357600080fd5b5061018c6104a7565b6040516101999190610ccc565b60405180910390f35b6101aa6104af565b005b3480156101b857600080fd5b506101d360048036038101906101ce9190610fc9565b61061e565b005b3480156101e157600080fd5b506101ea61080e565b6040516101f79190611057565b60405180910390f35b34801561020c57600080fd5b50610215610838565b6040516102229190610ccc565b60405180910390f35b34801561023757600080fd5b50610240610847565b60405161024d9190610ccc565b60405180910390f35b34801561026257600080fd5b5061027d60048036038101906102789190611127565b610854565b60405161028b92919061120a565b60405180910390f35b3480156102a057600080fd5b506102a9610900565b6040516102b69190610ccc565b60405180910390f35b3480156102cb57600080fd5b506102d4610928565b6040516102e19190610ccc565b60405180910390f35b3480156102f657600080fd5b506102ff610932565b60405161030c9190610ccc565b60405180910390f35b34801561032157600080fd5b5061032a61093e565b604051610337919061125d565b60405180910390f35b34801561034c57600080fd5b5061036760048036038101906103629190611278565b610966565b6040516103749190611057565b60405180910390f35b34801561038957600080fd5b506103926109ad565b60405161039f9190610ccc565b60405180910390f35b60007f0000000000000000000000000000000000000000000000000000000000000000905090565b6000600160149054906101000a900460ff16905090565b7f000000000000000000000000000000000000000000000000000000000000000073ffffffffffffffffffffffffffffffffffffffff163373ffffffffffffffffffffffffffffffffffffffff161461049957337f00000000000000000000000000000000000000000000000000000000000000006040517f1cf993f40000000000000000000000000000000000000000000000000000000081526004016104909291906112a5565b60405180910390fd5b6104a382826109b9565b5050565b600047905090565b7f0000000000000000000000000000000000000000000000000000000000000000341015610509576040517f046d209600000000000000000000000000000000000000000000000000000000815260040160405180910390fd5b6000600181111561051d5761051c610ce7565b5b600160149054906101000a900460ff16600181111561053f5761053e610ce7565b5b14610576576040517f5731c74000000000000000000000000000000000000000000000000000000000815260040160405180910390fd5b6000339080600181540180825580915050600190039060005260206000200160009091909190916101000a81548173ffffffffffffffffffffffffffffffffffffffff021916908373ffffffffffffffffffffffffffffffffffffffff1602179055503373ffffffffffffffffffffffffffffffffffffffff167f0805e1d667bddb8a95f0f09880cf94f403fb596ce79928d9f29b74203ba284d460405160405180910390a2565b600061063860405180602001604052806000815250610854565b509050806106a75747600080549050600160149054906101000a900460ff16600181111561066957610668610ce7565b5b6040517f584327aa00000000000000000000000000000000000000000000000000000000815260040161069e939291906112ce565b60405180910390fd5b60018060146101000a81548160ff021916908360018111156106cc576106cb610ce7565b5b021790555060007f000000000000000000000000000000000000000000000000000000000000000073ffffffffffffffffffffffffffffffffffffffff16635d3b1d307f00000000000000000000000000000000000000000000000000000000000000007f000000000000000000000000000000000000000000000000000000000000000060037f000000000000000000000000000000000000000000000000000000000000000060016040518663ffffffff1660e01b815260040161079695949392919061135a565b6020604051808303816000875af11580156107b5573d6000803e3d6000fd5b505050506040513d601f19601f820116820180604052508101906107d991906113c2565b9050807fcd6e45c8998311cab7e9d4385596cac867e20a0587194b954fa3a731c93ce78b60405160405180910390a250505050565b6000600160009054906101000a900473ffffffffffffffffffffffffffffffffffffffff16905090565b6000600163ffffffff16905090565b6000600361ffff16905090565b60006060600080600181111561086d5761086c610ce7565b5b600160149054906101000a900460ff16600181111561088f5761088e610ce7565b5b14905060007f0000000000000000000000000000000000000000000000000000000000000000600254426108c3919061141e565b119050600080600080549050119050600080471190508380156108e35750825b80156108ec5750815b80156108f55750805b955050505050915091565b60007f0000000000000000000000000000000000000000000000000000000000000000905090565b6000600254905090565b60008080549050905090565b60007f0000000000000000000000000000000000000000000000000000000000000000905090565b600080828154811061097b5761097a611452565b5b9060005260206000200160009054906101000a900473ffffffffffffffffffffffffffffffffffffffff169050919050565b60008080549050905090565b60008080549050826000815181106109d4576109d3611452565b5b60200260200101516109e691906114b0565b905060008082815481106109fd576109fc611452565b5b9060005260206000200160009054906101000a900473ffffffffffffffffffffffffffffffffffffffff16905080600160006101000a81548173ffffffffffffffffffffffffffffffffffffffff021916908373ffffffffffffffffffffffffffffffffffffffff16021790555060008173ffffffffffffffffffffffffffffffffffffffff1647604051610a9190611512565b60006040518083038185875af1925050503d8060008114610ace576040519150601f19603f3d011682016040523d82523d6000602084013e610ad3565b606091505b5050905080610b0e576040517fa1d04b3900000000000000000000000000000000000000000000000000000000815260040160405180910390fd5b600160009054906101000a900473ffffffffffffffffffffffffffffffffffffffff1673ffffffffffffffffffffffffffffffffffffffff167f5b690ec4a06fe979403046eaeea5b3ce38524683c3001f662c8b5a829632f7df60405160405180910390a2600067ffffffffffffffff811115610b8e57610b8d610dcf565b5b604051908082528060200260200182016040528015610bbc5781602001602082028036833780820191505090505b5060009080519060200190610bd2929190610c0c565b506000600160146101000a81548160ff02191690836001811115610bf957610bf8610ce7565b5b0217905550426002819055505050505050565b828054828255906000526020600020908101928215610c85579160200282015b82811115610c845782518260006101000a81548173ffffffffffffffffffffffffffffffffffffffff021916908373ffffffffffffffffffffffffffffffffffffffff16021790555091602001919060010190610c2c565b5b509050610c929190610c96565b5090565b5b80821115610caf576000816000905550600101610c97565b5090565b6000819050919050565b610cc681610cb3565b82525050565b6000602082019050610ce16000830184610cbd565b92915050565b7f4e487b7100000000000000000000000000000000000000000000000000000000600052602160045260246000fd5b60028110610d2757610d26610ce7565b5b50565b6000819050610d3882610d16565b919050565b6000610d4882610d2a565b9050919050565b610d5881610d3d565b82525050565b6000602082019050610d736000830184610d4f565b92915050565b6000604051905090565b600080fd5b600080fd5b610d9681610cb3565b8114610da157600080fd5b50565b600081359050610db381610d8d565b92915050565b600080fd5b6000601f19601f8301169050919050565b7f4e487b7100000000000000000000000000000000000000000000000000000000600052604160045260246000fd5b610e0782610dbe565b810181811067ffffffffffffffff82111715610e2657610e25610dcf565b5b80604052505050565b6000610e39610d79565b9050610e458282610dfe565b919050565b600067ffffffffffffffff821115610e6557610e64610dcf565b5b602082029050602081019050919050565b600080fd5b6000610e8e610e8984610e4a565b610e2f565b90508083825260208201905060208402830185811115610eb157610eb0610e76565b5b835b81811015610eda5780610ec68882610da4565b845260208401935050602081019050610eb3565b5050509392505050565b600082601f830112610ef957610ef8610db9565b5b8135610f09848260208601610e7b565b91505092915050565b60008060408385031215610f2957610f28610d83565b5b6000610f3785828601610da4565b925050602083013567ffffffffffffffff811115610f5857610f57610d88565b5b610f6485828601610ee4565b9150509250929050565b600080fd5b60008083601f840112610f8957610f88610db9565b5b8235905067ffffffffffffffff811115610fa657610fa5610f6e565b5b602083019150836001820283011115610fc257610fc1610e76565b5b9250929050565b60008060208385031215610fe057610fdf610d83565b5b600083013567ffffffffffffffff811115610ffe57610ffd610d88565b5b61100a85828601610f73565b92509250509250929050565b600073ffffffffffffffffffffffffffffffffffffffff82169050919050565b600061104182611016565b9050919050565b61105181611036565b82525050565b600060208201905061106c6000830184611048565b92915050565b600080fd5b600067ffffffffffffffff82111561109257611091610dcf565b5b61109b82610dbe565b9050602081019050919050565b82818337600083830152505050565b60006110ca6110c584611077565b610e2f565b9050828152602081018484840111156110e6576110e5611072565b5b6110f18482856110a8565b509392505050565b600082601f83011261110e5761110d610db9565b5b813561111e8482602086016110b7565b91505092915050565b60006020828403121561113d5761113c610d83565b5b600082013567ffffffffffffffff81111561115b5761115a610d88565b5b611167848285016110f9565b91505092915050565b60008115159050919050565b61118581611170565b82525050565b600081519050919050565b600082825260208201905092915050565b60005b838110156111c55780820151818401526020810190506111aa565b60008484015250505050565b60006111dc8261118b565b6111e68185611196565b93506111f68185602086016111a7565b6111ff81610dbe565b840191505092915050565b600060408201905061121f600083018561117c565b818103602083015261123181846111d1565b90509392505050565b600067ffffffffffffffff82169050919050565b6112578161123a565b82525050565b6000602082019050611272600083018461124e565b92915050565b60006020828403121561128e5761128d610d83565b5b600061129c84828501610da4565b91505092915050565b60006040820190506112ba6000830185611048565b6112c76020830184611048565b9392505050565b60006060820190506112e36000830186610cbd565b6112f06020830185610cbd565b6112fd6040830184610cbd565b949350505050565b6000819050919050565b61131881611305565b82525050565b600061ffff82169050919050565b6113358161131e565b82525050565b600063ffffffff82169050919050565b6113548161133b565b82525050565b600060a08201905061136f600083018861130f565b61137c602083018761124e565b611389604083018661132c565b611396606083018561134b565b6113a3608083018461134b565b9695505050505050565b6000815190506113bc81610d8d565b92915050565b6000602082840312156113d8576113d7610d83565b5b60006113e6848285016113ad565b91505092915050565b7f4e487b7100000000000000000000000000000000000000000000000000000000600052601160045260246000fd5b600061142982610cb3565b915061143483610cb3565b925082820390508181111561144c5761144b6113ef565b5b92915050565b7f4e487b7100000000000000000000000000000000000000000000000000000000600052603260045260246000fd5b7f4e487b7100000000000000000000000000000000000000000000000000000000600052601260045260246000fd5b60006114bb82610cb3565b91506114c683610cb3565b9250826114d6576114d5611481565b5b828206905092915050565b600081905092915050565b50565b60006114fc6000836114e1565b9150611507826114ec565b600082019050919050565b600061151d826114ef565b915081905091905056fea2646970667358221220d1f9505efb6e9247ec83cfe6440e549de852562bb2bb3a036dbc97609e43777264736f6c63430008110033",
  "linkReferences": {},
  "deployedLinkReferences": {}
}