{
  "_format": "hh-sol-artifact-1",
  "contractName": "Raffle",
  "sourceName": "contracts/Raffle.sol",
  "abi": [
    {
      "inputs": [
        {
          "internalType": "address",
          "name": "vrfCoordinatorV2",
          "type": "address"
        },
        {
          "internalType": "uint256",
          "name": "entranceFee",
          "type": "uint256"
        },
        {
          "internalType": "bytes32",
          "name": "gasLane",
          "type": "bytes32"
        },
        {
          "internalType": "uint64",
          "name": "subscriptionId",
          "type": "uint64"
        },
        {
          "internalType": "uint32",
          "name": "callbackGasLimit",
          "type": "uint32"
        },
        {
          "internalType": "uint256",
          "name": "intervall",
          "type": "uint256"
        }
      ],
      "stateMutability": "nonpayable",
      "type": "constructor"
    },
    {
      "inputs": [
        {
          "internalType": "address",
          "name": "have",
          "type": "address"
        },
        {
          "internalType": "address",
          "name": "want",
          "type": "address"
        }
      ],
      "name": "OnlyCoordinatorCanFulfill",
      "type": "error"
    },
    {
      "inputs": [],
      "name": "Raffle__NOTOPEN",
      "type": "error"
    },
    {
      "inputs": [],
      "name": "Raffle__NotEnoughFee",
      "type": "error"
    },
    {
      "inputs": [],
      "name": "Raffle__TransferFailed",
      "type": "error"
    },
    {
      "anonymous": false,
      "inputs": [
        {
          "indexed": true,
          "internalType": "address",
          "name": "player",
          "type": "address"
        }
      ],
      "name": "RaffleEnter",
      "type": "event"
    },
    {
      "anonymous": false,
      "inputs": [
        {
          "indexed": true,
          "internalType": "uint256",
          "name": "requestId",
          "type": "uint256"
        }
      ],
      "name": "RequestedRaffleWinner",
      "type": "event"
    },
    {
      "anonymous": false,
      "inputs": [
        {
          "indexed": true,
          "internalType": "address",
          "name": "winner",
          "type": "address"
        }
      ],
      "name": "WinnerPicked",
      "type": "event"
    },
    {
      "inputs": [
        {
          "internalType": "bytes",
          "name": "",
          "type": "bytes"
        }
      ],
      "name": "checkUpkeep",
      "outputs": [
        {
          "internalType": "bool",
          "name": "upkeepNeeded",
          "type": "bool"
        },
        {
          "internalType": "bytes",
          "name": "",
          "type": "bytes"
        }
      ],
      "stateMutability": "view",
      "type": "function"
    },
    {
      "inputs": [],
      "name": "enterRaffle",
      "outputs": [],
      "stateMutability": "payable",
      "type": "function"
    },
    {
      "inputs": [],
      "name": "getBalanceOfContract",
      "outputs": [
        {
          "internalType": "uint256",
          "name": "",
          "type": "uint256"
        }
      ],
      "stateMutability": "view",
      "type": "function"
    },
    {
      "inputs": [],
      "name": "getEntranceFee",
      "outputs": [
        {
          "internalType": "uint256",
          "name": "",
          "type": "uint256"
        }
      ],
      "stateMutability": "view",
      "type": "function"
    },
    {
      "inputs": [],
      "name": "getInterval",
      "outputs": [
        {
          "internalType": "uint256",
          "name": "",
          "type": "uint256"
        }
      ],
      "stateMutability": "view",
      "type": "function"
    },
    {
      "inputs": [],
      "name": "getLastTimeStamp",
      "outputs": [
        {
          "internalType": "uint256",
          "name": "",
          "type": "uint256"
        }
      ],
      "stateMutability": "view",
      "type": "function"
    },
    {
      "inputs": [],
      "name": "getNumWords",
      "outputs": [
        {
          "internalType": "uint256",
          "name": "",
          "type": "uint256"
        }
      ],
      "stateMutability": "pure",
      "type": "function"
    },
    {
      "inputs": [],
      "name": "getNumberOfPlayers",
      "outputs": [
        {
          "internalType": "uint256",
          "name": "",
          "type": "uint256"
        }
      ],
      "stateMutability": "view",
      "type": "function"
    },
    {
      "inputs": [
        {
          "internalType": "uint256",
          "name": "index",
          "type": "uint256"
        }
      ],
      "name": "getPlayer",
      "outputs": [
        {
          "internalType": "address",
          "name": "",
          "type": "address"
        }
      ],
      "stateMutability": "view",
      "type": "function"
    },
    {
      "inputs": [],
      "name": "getPlayersLength",
      "outputs": [
        {
          "internalType": "uint256",
          "name": "",
          "type": "uint256"
        }
      ],
      "stateMutability": "view",
      "type": "function"
    },
    {
      "inputs": [],
      "name": "getRaffleState",
      "outputs": [
        {
          "internalType": "enum Raffle.RaffleState",
          "name": "",
          "type": "uint8"
        }
      ],
      "stateMutability": "view",
      "type": "function"
    },
    {
      "inputs": [],
      "name": "getRecentWinner",
      "outputs": [
        {
          "internalType": "address",
          "name": "",
          "type": "address"
        }
      ],
      "stateMutability": "view",
      "type": "function"
    },
    {
      "inputs": [],
      "name": "getRequestConfirmations",
      "outputs": [
        {
          "internalType": "uint256",
          "name": "",
          "type": "uint256"
        }
      ],
      "stateMutability": "pure",
      "type": "function"
    },
    {
      "inputs": [],
      "name": "getSubscriptionId",
      "outputs": [
        {
          "internalType": "uint64",
          "name": "",
          "type": "uint64"
        }
      ],
      "stateMutability": "view",
      "type": "function"
    },
    {
      "inputs": [
        {
          "internalType": "bytes",
          "name": "",
          "type": "bytes"
        }
      ],
      "name": "performUpkeep",
      "outputs": [],
      "stateMutability": "nonpayable",
      "type": "function"
    },
    {
      "inputs": [
        {
          "internalType": "uint256",
          "name": "requestId",
          "type": "uint256"
        },
        {
          "internalType": "uint256[]",
          "name": "randomWords",
          "type": "uint256[]"
        }
      ],
      "name": "rawFulfillRandomWords",
      "outputs": [],
      "stateMutability": "nonpayable",
      "type": "function"
    }
  ],
  "bytecode": "0x6101606040523480156200001257600080fd5b506040516200187238038062001872833981810160405281019062000038919062000294565b858073ffffffffffffffffffffffffffffffffffffffff1660808173ffffffffffffffffffffffffffffffffffffffff1681525050508460a081815250508573ffffffffffffffffffffffffffffffffffffffff1660c08173ffffffffffffffffffffffffffffffffffffffff16815250508360e081815250508267ffffffffffffffff166101008167ffffffffffffffff16815250508163ffffffff166101208163ffffffff16815250506000600160146101000a81548160ff021916908360018111156200010d576200010c62000330565b5b0217905550426002819055508061014081815250505050505050506200035f565b600080fd5b600073ffffffffffffffffffffffffffffffffffffffff82169050919050565b6000620001608262000133565b9050919050565b620001728162000153565b81146200017e57600080fd5b50565b600081519050620001928162000167565b92915050565b6000819050919050565b620001ad8162000198565b8114620001b957600080fd5b50565b600081519050620001cd81620001a2565b92915050565b6000819050919050565b620001e881620001d3565b8114620001f457600080fd5b50565b6000815190506200020881620001dd565b92915050565b600067ffffffffffffffff82169050919050565b6200022d816200020e565b81146200023957600080fd5b50565b6000815190506200024d8162000222565b92915050565b600063ffffffff82169050919050565b6200026e8162000253565b81146200027a57600080fd5b50565b6000815190506200028e8162000263565b92915050565b60008060008060008060c08789031215620002b457620002b36200012e565b5b6000620002c489828a0162000181565b9650506020620002d789828a01620001bc565b9550506040620002ea89828a01620001f7565b9450506060620002fd89828a016200023c565b93505060806200031089828a016200027d565b92505060a06200032389828a01620001bc565b9150509295509295509295565b7f4e487b7100000000000000000000000000000000000000000000000000000000600052602160045260246000fd5b60805160a05160c05160e05161010051610120516101405161149c620003d66000396000818161080c015261087a015260006106cc0152600081816106a901526108b8015260006106880152600061064c0152600081816103ac01526104b10152600081816103e9015261043d015261149c6000f3fe6080604052600436106100f35760003560e01c80635f1b0fd81161008a578063cd61386d11610059578063cd61386d146102ea578063de3d9fb714610315578063e55ae4e814610340578063fd6673f51461037d576100f3565b80635f1b0fd81461022b5780636e04ff0d1461025657806391ad27b414610294578063c1c244e8146102bf576100f3565b80632cfcc539116100c65780632cfcc539146101a25780634585e33b146101ac578063473f1ddc146101d557806353a2c19a14610200576100f3565b806309bc33a7146100f8578063115cbaf5146101235780631fe543e31461014e5780632296888514610177575b600080fd5b34801561010457600080fd5b5061010d6103a8565b60405161011a9190610c42565b60405180910390f35b34801561012f57600080fd5b506101386103d0565b6040516101459190610cd4565b60405180910390f35b34801561015a57600080fd5b5061017560048036038101906101709190610e88565b6103e7565b005b34801561018357600080fd5b5061018c6104a7565b6040516101999190610c42565b60405180910390f35b6101aa6104af565b005b3480156101b857600080fd5b506101d360048036038101906101ce9190610f3f565b61061e565b005b3480156101e157600080fd5b506101ea610784565b6040516101f79190610fcd565b60405180910390f35b34801561020c57600080fd5b506102156107ae565b6040516102229190610c42565b60405180910390f35b34801561023757600080fd5b506102406107bd565b60405161024d9190610c42565b60405180910390f35b34801561026257600080fd5b5061027d6004803603810190610278919061109d565b6107ca565b60405161028b929190611180565b60405180910390f35b3480156102a057600080fd5b506102a9610876565b6040516102b69190610c42565b60405180910390f35b3480156102cb57600080fd5b506102d461089e565b6040516102e19190610c42565b60405180910390f35b3480156102f657600080fd5b506102ff6108a8565b60405161030c9190610c42565b60405180910390f35b34801561032157600080fd5b5061032a6108b4565b60405161033791906111d3565b60405180910390f35b34801561034c57600080fd5b50610367600480360381019061036291906111ee565b6108dc565b6040516103749190610fcd565b60405180910390f35b34801561038957600080fd5b50610392610923565b60405161039f9190610c42565b60405180910390f35b60007f0000000000000000000000000000000000000000000000000000000000000000905090565b6000600160149054906101000a900460ff16905090565b7f000000000000000000000000000000000000000000000000000000000000000073ffffffffffffffffffffffffffffffffffffffff163373ffffffffffffffffffffffffffffffffffffffff161461049957337f00000000000000000000000000000000000000000000000000000000000000006040517f1cf993f400000000000000000000000000000000000000000000000000000000815260040161049092919061121b565b60405180910390fd5b6104a3828261092f565b5050565b600047905090565b7f0000000000000000000000000000000000000000000000000000000000000000341015610509576040517f046d209600000000000000000000000000000000000000000000000000000000815260040160405180910390fd5b6000600181111561051d5761051c610c5d565b5b600160149054906101000a900460ff16600181111561053f5761053e610c5d565b5b14610576576040517f5731c74000000000000000000000000000000000000000000000000000000000815260040160405180910390fd5b6000339080600181540180825580915050600190039060005260206000200160009091909190916101000a81548173ffffffffffffffffffffffffffffffffffffffff021916908373ffffffffffffffffffffffffffffffffffffffff1602179055503373ffffffffffffffffffffffffffffffffffffffff167f0805e1d667bddb8a95f0f09880cf94f403fb596ce79928d9f29b74203ba284d460405160405180910390a2565b60018060146101000a81548160ff0219169083600181111561064357610642610c5d565b5b021790555060007f000000000000000000000000000000000000000000000000000000000000000073ffffffffffffffffffffffffffffffffffffffff16635d3b1d307f00000000000000000000000000000000000000000000000000000000000000007f000000000000000000000000000000000000000000000000000000000000000060037f000000000000000000000000000000000000000000000000000000000000000060016040518663ffffffff1660e01b815260040161070d959493929190611299565b6020604051808303816000875af115801561072c573d6000803e3d6000fd5b505050506040513d601f19601f820116820180604052508101906107509190611301565b9050807fcd6e45c8998311cab7e9d4385596cac867e20a0587194b954fa3a731c93ce78b60405160405180910390a2505050565b6000600160009054906101000a900473ffffffffffffffffffffffffffffffffffffffff16905090565b6000600163ffffffff16905090565b6000600361ffff16905090565b6000606060008060018111156107e3576107e2610c5d565b5b600160149054906101000a900460ff16600181111561080557610804610c5d565b5b14905060007f000000000000000000000000000000000000000000000000000000000000000060025442610839919061135d565b119050600080600080549050119050600080471190508380156108595750825b80156108625750815b801561086b5750805b955050505050915091565b60007f0000000000000000000000000000000000000000000000000000000000000000905090565b6000600254905090565b60008080549050905090565b60007f0000000000000000000000000000000000000000000000000000000000000000905090565b60008082815481106108f1576108f0611391565b5b9060005260206000200160009054906101000a900473ffffffffffffffffffffffffffffffffffffffff169050919050565b60008080549050905090565b600080805490508260008151811061094a57610949611391565b5b602002602001015161095c91906113ef565b9050600080828154811061097357610972611391565b5b9060005260206000200160009054906101000a900473ffffffffffffffffffffffffffffffffffffffff16905080600160006101000a81548173ffffffffffffffffffffffffffffffffffffffff021916908373ffffffffffffffffffffffffffffffffffffffff16021790555060008173ffffffffffffffffffffffffffffffffffffffff1647604051610a0790611451565b60006040518083038185875af1925050503d8060008114610a44576040519150601f19603f3d011682016040523d82523d6000602084013e610a49565b606091505b5050905080610a84576040517fa1d04b3900000000000000000000000000000000000000000000000000000000815260040160405180910390fd5b600160009054906101000a900473ffffffffffffffffffffffffffffffffffffffff1673ffffffffffffffffffffffffffffffffffffffff167f5b690ec4a06fe979403046eaeea5b3ce38524683c3001f662c8b5a829632f7df60405160405180910390a2600067ffffffffffffffff811115610b0457610b03610d45565b5b604051908082528060200260200182016040528015610b325781602001602082028036833780820191505090505b5060009080519060200190610b48929190610b82565b506000600160146101000a81548160ff02191690836001811115610b6f57610b6e610c5d565b5b0217905550426002819055505050505050565b828054828255906000526020600020908101928215610bfb579160200282015b82811115610bfa5782518260006101000a81548173ffffffffffffffffffffffffffffffffffffffff021916908373ffffffffffffffffffffffffffffffffffffffff16021790555091602001919060010190610ba2565b5b509050610c089190610c0c565b5090565b5b80821115610c25576000816000905550600101610c0d565b5090565b6000819050919050565b610c3c81610c29565b82525050565b6000602082019050610c576000830184610c33565b92915050565b7f4e487b7100000000000000000000000000000000000000000000000000000000600052602160045260246000fd5b60028110610c9d57610c9c610c5d565b5b50565b6000819050610cae82610c8c565b919050565b6000610cbe82610ca0565b9050919050565b610cce81610cb3565b82525050565b6000602082019050610ce96000830184610cc5565b92915050565b6000604051905090565b600080fd5b600080fd5b610d0c81610c29565b8114610d1757600080fd5b50565b600081359050610d2981610d03565b92915050565b600080fd5b6000601f19601f8301169050919050565b7f4e487b7100000000000000000000000000000000000000000000000000000000600052604160045260246000fd5b610d7d82610d34565b810181811067ffffffffffffffff82111715610d9c57610d9b610d45565b5b80604052505050565b6000610daf610cef565b9050610dbb8282610d74565b919050565b600067ffffffffffffffff821115610ddb57610dda610d45565b5b602082029050602081019050919050565b600080fd5b6000610e04610dff84610dc0565b610da5565b90508083825260208201905060208402830185811115610e2757610e26610dec565b5b835b81811015610e505780610e3c8882610d1a565b845260208401935050602081019050610e29565b5050509392505050565b600082601f830112610e6f57610e6e610d2f565b5b8135610e7f848260208601610df1565b91505092915050565b60008060408385031215610e9f57610e9e610cf9565b5b6000610ead85828601610d1a565b925050602083013567ffffffffffffffff811115610ece57610ecd610cfe565b5b610eda85828601610e5a565b9150509250929050565b600080fd5b60008083601f840112610eff57610efe610d2f565b5b8235905067ffffffffffffffff811115610f1c57610f1b610ee4565b5b602083019150836001820283011115610f3857610f37610dec565b5b9250929050565b60008060208385031215610f5657610f55610cf9565b5b600083013567ffffffffffffffff811115610f7457610f73610cfe565b5b610f8085828601610ee9565b92509250509250929050565b600073ffffffffffffffffffffffffffffffffffffffff82169050919050565b6000610fb782610f8c565b9050919050565b610fc781610fac565b82525050565b6000602082019050610fe26000830184610fbe565b92915050565b600080fd5b600067ffffffffffffffff82111561100857611007610d45565b5b61101182610d34565b9050602081019050919050565b82818337600083830152505050565b600061104061103b84610fed565b610da5565b90508281526020810184848401111561105c5761105b610fe8565b5b61106784828561101e565b509392505050565b600082601f83011261108457611083610d2f565b5b813561109484826020860161102d565b91505092915050565b6000602082840312156110b3576110b2610cf9565b5b600082013567ffffffffffffffff8111156110d1576110d0610cfe565b5b6110dd8482850161106f565b91505092915050565b60008115159050919050565b6110fb816110e6565b82525050565b600081519050919050565b600082825260208201905092915050565b60005b8381101561113b578082015181840152602081019050611120565b60008484015250505050565b600061115282611101565b61115c818561110c565b935061116c81856020860161111d565b61117581610d34565b840191505092915050565b600060408201905061119560008301856110f2565b81810360208301526111a78184611147565b90509392505050565b600067ffffffffffffffff82169050919050565b6111cd816111b0565b82525050565b60006020820190506111e860008301846111c4565b92915050565b60006020828403121561120457611203610cf9565b5b600061121284828501610d1a565b91505092915050565b60006040820190506112306000830185610fbe565b61123d6020830184610fbe565b9392505050565b6000819050919050565b61125781611244565b82525050565b600061ffff82169050919050565b6112748161125d565b82525050565b600063ffffffff82169050919050565b6112938161127a565b82525050565b600060a0820190506112ae600083018861124e565b6112bb60208301876111c4565b6112c8604083018661126b565b6112d5606083018561128a565b6112e2608083018461128a565b9695505050505050565b6000815190506112fb81610d03565b92915050565b60006020828403121561131757611316610cf9565b5b6000611325848285016112ec565b91505092915050565b7f4e487b7100000000000000000000000000000000000000000000000000000000600052601160045260246000fd5b600061136882610c29565b915061137383610c29565b925082820390508181111561138b5761138a61132e565b5b92915050565b7f4e487b7100000000000000000000000000000000000000000000000000000000600052603260045260246000fd5b7f4e487b7100000000000000000000000000000000000000000000000000000000600052601260045260246000fd5b60006113fa82610c29565b915061140583610c29565b925082611415576114146113c0565b5b828206905092915050565b600081905092915050565b50565b600061143b600083611420565b91506114468261142b565b600082019050919050565b600061145c8261142e565b915081905091905056fea2646970667358221220e86afab62e5236871736bffcd28004fe42cd6eb93c79bd7323ec74581999ab9564736f6c63430008110033",
  "linkReferences": {},
  "deployedLinkReferences": {}
}