{
  "_format": "hh-sol-artifact-1",
  "contractName": "Raffle",
  "sourceName": "contracts/Raffle.sol",
  "abi": [
    {
      "inputs": [
        {
          "internalType": "address",
          "name": "vrfCoordinatorV2",
          "type": "address"
        },
        {
          "internalType": "uint256",
          "name": "entranceFee",
          "type": "uint256"
        },
        {
          "internalType": "bytes32",
          "name": "gasLane",
          "type": "bytes32"
        },
        {
          "internalType": "uint64",
          "name": "subscriptionId",
          "type": "uint64"
        },
        {
          "internalType": "uint32",
          "name": "callbackGasLimit",
          "type": "uint32"
        },
        {
          "internalType": "uint256",
          "name": "intervall",
          "type": "uint256"
        }
      ],
      "stateMutability": "nonpayable",
      "type": "constructor"
    },
    {
      "inputs": [
        {
          "internalType": "address",
          "name": "have",
          "type": "address"
        },
        {
          "internalType": "address",
          "name": "want",
          "type": "address"
        }
      ],
      "name": "OnlyCoordinatorCanFulfill",
      "type": "error"
    },
    {
      "inputs": [],
      "name": "Raffle__NOTOPEN",
      "type": "error"
    },
    {
      "inputs": [],
      "name": "Raffle__NotEnoughFee",
      "type": "error"
    },
    {
      "inputs": [],
      "name": "Raffle__TransferFailed",
      "type": "error"
    },
    {
      "inputs": [
        {
          "internalType": "uint256",
          "name": "currentBalance",
          "type": "uint256"
        },
        {
          "internalType": "uint256",
          "name": "playerNumber",
          "type": "uint256"
        },
        {
          "internalType": "uint256",
          "name": "raffle_state_in_number",
          "type": "uint256"
        }
      ],
      "name": "Raffle__UpkeepNotNeeded",
      "type": "error"
    },
    {
      "anonymous": false,
      "inputs": [
        {
          "indexed": true,
          "internalType": "address",
          "name": "player",
          "type": "address"
        }
      ],
      "name": "RaffleEnter",
      "type": "event"
    },
    {
      "anonymous": false,
      "inputs": [
        {
          "indexed": true,
          "internalType": "uint256",
          "name": "requestId",
          "type": "uint256"
        }
      ],
      "name": "RequestedRaffleWinner",
      "type": "event"
    },
    {
      "anonymous": false,
      "inputs": [
        {
          "indexed": true,
          "internalType": "address",
          "name": "winner",
          "type": "address"
        }
      ],
      "name": "WinnerPicked",
      "type": "event"
    },
    {
      "inputs": [
        {
          "internalType": "bytes",
          "name": "",
          "type": "bytes"
        }
      ],
      "name": "checkUpkeep",
      "outputs": [
        {
          "internalType": "bool",
          "name": "upkeepNeeded",
          "type": "bool"
        },
        {
          "internalType": "bytes",
          "name": "",
          "type": "bytes"
        }
      ],
      "stateMutability": "nonpayable",
      "type": "function"
    },
    {
      "inputs": [],
      "name": "enterRaffle",
      "outputs": [],
      "stateMutability": "payable",
      "type": "function"
    },
    {
      "inputs": [],
      "name": "getEntranceFee",
      "outputs": [
        {
          "internalType": "uint256",
          "name": "",
          "type": "uint256"
        }
      ],
      "stateMutability": "view",
      "type": "function"
    },
    {
      "inputs": [],
      "name": "getNumWords",
      "outputs": [
        {
          "internalType": "uint256",
          "name": "",
          "type": "uint256"
        }
      ],
      "stateMutability": "pure",
      "type": "function"
    },
    {
      "inputs": [
        {
          "internalType": "uint256",
          "name": "index",
          "type": "uint256"
        }
      ],
      "name": "getPlayer",
      "outputs": [
        {
          "internalType": "address",
          "name": "",
          "type": "address"
        }
      ],
      "stateMutability": "view",
      "type": "function"
    },
    {
      "inputs": [],
      "name": "getRaffleState",
      "outputs": [
        {
          "internalType": "enum Raffle.RaffleState",
          "name": "",
          "type": "uint8"
        }
      ],
      "stateMutability": "view",
      "type": "function"
    },
    {
      "inputs": [],
      "name": "getRecentWinner",
      "outputs": [
        {
          "internalType": "address",
          "name": "",
          "type": "address"
        }
      ],
      "stateMutability": "view",
      "type": "function"
    },
    {
      "inputs": [
        {
          "internalType": "bytes",
          "name": "",
          "type": "bytes"
        }
      ],
      "name": "performUpkeep",
      "outputs": [],
      "stateMutability": "nonpayable",
      "type": "function"
    },
    {
      "inputs": [
        {
          "internalType": "uint256",
          "name": "requestId",
          "type": "uint256"
        },
        {
          "internalType": "uint256[]",
          "name": "randomWords",
          "type": "uint256[]"
        }
      ],
      "name": "rawFulfillRandomWords",
      "outputs": [],
      "stateMutability": "nonpayable",
      "type": "function"
    }
  ],
  "bytecode": "0x6101606040523480156200001257600080fd5b50604051620016e9380380620016e9833981810160405281019062000038919062000294565b858073ffffffffffffffffffffffffffffffffffffffff1660808173ffffffffffffffffffffffffffffffffffffffff1681525050508460a081815250508573ffffffffffffffffffffffffffffffffffffffff1660c08173ffffffffffffffffffffffffffffffffffffffff16815250508360e081815250508267ffffffffffffffff166101008167ffffffffffffffff16815250508163ffffffff166101208163ffffffff16815250506000600160146101000a81548160ff021916908360018111156200010d576200010c62000330565b5b0217905550426002819055508061014081815250505050505050506200035f565b600080fd5b600073ffffffffffffffffffffffffffffffffffffffff82169050919050565b6000620001608262000133565b9050919050565b620001728162000153565b81146200017e57600080fd5b50565b600081519050620001928162000167565b92915050565b6000819050919050565b620001ad8162000198565b8114620001b957600080fd5b50565b600081519050620001cd81620001a2565b92915050565b6000819050919050565b620001e881620001d3565b8114620001f457600080fd5b50565b6000815190506200020881620001dd565b92915050565b600067ffffffffffffffff82169050919050565b6200022d816200020e565b81146200023957600080fd5b50565b6000815190506200024d8162000222565b92915050565b600063ffffffff82169050919050565b6200026e8162000253565b81146200027a57600080fd5b50565b6000815190506200028e8162000263565b92915050565b60008060008060008060c08789031215620002b457620002b36200012e565b5b6000620002c489828a0162000181565b9650506020620002d789828a01620001bc565b9550506040620002ea89828a01620001f7565b9450506060620002fd89828a016200023c565b93505060806200031089828a016200027d565b92505060a06200032389828a01620001bc565b9150509295509295509295565b7f4e487b7100000000000000000000000000000000000000000000000000000000600052602160045260246000fd5b60805160a05160c05160e051610100516101205161014051611321620003c860003960006106e7015260006105b3015260006105900152600061056f01526000610533015260008181610212015261030f01526000818161024f01526102a301526113216000f3fe6080604052600436106100865760003560e01c80634585e33b116100595780634585e33b14610114578063473f1ddc1461013d57806353a2c19a146101685780636e04ff0d14610193578063e55ae4e8146101d157610086565b806309bc33a71461008b578063115cbaf5146100b65780631fe543e3146100e15780632cfcc5391461010a575b600080fd5b34801561009757600080fd5b506100a061020e565b6040516100ad9190610aab565b60405180910390f35b3480156100c257600080fd5b506100cb610236565b6040516100d89190610b3d565b60405180910390f35b3480156100ed57600080fd5b5061010860048036038101906101039190610cf1565b61024d565b005b61011261030d565b005b34801561012057600080fd5b5061013b60048036038101906101369190610da8565b61047c565b005b34801561014957600080fd5b5061015261066c565b60405161015f9190610e36565b60405180910390f35b34801561017457600080fd5b5061017d610696565b60405161018a9190610aab565b60405180910390f35b34801561019f57600080fd5b506101ba60048036038101906101b59190610f06565b6106a5565b6040516101c8929190610fe9565b60405180910390f35b3480156101dd57600080fd5b506101f860048036038101906101f39190611019565b610751565b6040516102059190610e36565b60405180910390f35b60007f0000000000000000000000000000000000000000000000000000000000000000905090565b6000600160149054906101000a900460ff16905090565b7f000000000000000000000000000000000000000000000000000000000000000073ffffffffffffffffffffffffffffffffffffffff163373ffffffffffffffffffffffffffffffffffffffff16146102ff57337f00000000000000000000000000000000000000000000000000000000000000006040517f1cf993f40000000000000000000000000000000000000000000000000000000081526004016102f6929190611046565b60405180910390fd5b6103098282610798565b5050565b7f0000000000000000000000000000000000000000000000000000000000000000341015610367576040517f046d209600000000000000000000000000000000000000000000000000000000815260040160405180910390fd5b6000600181111561037b5761037a610ac6565b5b600160149054906101000a900460ff16600181111561039d5761039c610ac6565b5b146103d4576040517f5731c74000000000000000000000000000000000000000000000000000000000815260040160405180910390fd5b6000339080600181540180825580915050600190039060005260206000200160009091909190916101000a81548173ffffffffffffffffffffffffffffffffffffffff021916908373ffffffffffffffffffffffffffffffffffffffff1602179055503373ffffffffffffffffffffffffffffffffffffffff167f0805e1d667bddb8a95f0f09880cf94f403fb596ce79928d9f29b74203ba284d460405160405180910390a2565b6000610496604051806020016040528060008152506106a5565b509050806105055747600080549050600160149054906101000a900460ff1660018111156104c7576104c6610ac6565b5b6040517f584327aa0000000000000000000000000000000000000000000000000000000081526004016104fc9392919061106f565b60405180910390fd5b60018060146101000a81548160ff0219169083600181111561052a57610529610ac6565b5b021790555060007f000000000000000000000000000000000000000000000000000000000000000073ffffffffffffffffffffffffffffffffffffffff16635d3b1d307f00000000000000000000000000000000000000000000000000000000000000007f000000000000000000000000000000000000000000000000000000000000000060037f000000000000000000000000000000000000000000000000000000000000000060016040518663ffffffff1660e01b81526004016105f495949392919061111e565b6020604051808303816000875af1158015610613573d6000803e3d6000fd5b505050506040513d601f19601f820116820180604052508101906106379190611186565b9050807fcd6e45c8998311cab7e9d4385596cac867e20a0587194b954fa3a731c93ce78b60405160405180910390a250505050565b6000600160009054906101000a900473ffffffffffffffffffffffffffffffffffffffff16905090565b6000600163ffffffff16905090565b6000606060008060018111156106be576106bd610ac6565b5b600160149054906101000a900460ff1660018111156106e0576106df610ac6565b5b14905060007f00000000000000000000000000000000000000000000000000000000000000006002544261071491906111e2565b119050600080600080549050119050600080471190508380156107345750825b801561073d5750815b80156107465750805b955050505050915091565b600080828154811061076657610765611216565b5b9060005260206000200160009054906101000a900473ffffffffffffffffffffffffffffffffffffffff169050919050565b60008080549050826000815181106107b3576107b2611216565b5b60200260200101516107c59190611274565b905060008082815481106107dc576107db611216565b5b9060005260206000200160009054906101000a900473ffffffffffffffffffffffffffffffffffffffff16905080600160006101000a81548173ffffffffffffffffffffffffffffffffffffffff021916908373ffffffffffffffffffffffffffffffffffffffff16021790555060008173ffffffffffffffffffffffffffffffffffffffff1647604051610870906112d6565b60006040518083038185875af1925050503d80600081146108ad576040519150601f19603f3d011682016040523d82523d6000602084013e6108b2565b606091505b50509050806108ed576040517fa1d04b3900000000000000000000000000000000000000000000000000000000815260040160405180910390fd5b600160009054906101000a900473ffffffffffffffffffffffffffffffffffffffff1673ffffffffffffffffffffffffffffffffffffffff167f5b690ec4a06fe979403046eaeea5b3ce38524683c3001f662c8b5a829632f7df60405160405180910390a2600067ffffffffffffffff81111561096d5761096c610bae565b5b60405190808252806020026020018201604052801561099b5781602001602082028036833780820191505090505b50600090805190602001906109b19291906109eb565b506000600160146101000a81548160ff021916908360018111156109d8576109d7610ac6565b5b0217905550426002819055505050505050565b828054828255906000526020600020908101928215610a64579160200282015b82811115610a635782518260006101000a81548173ffffffffffffffffffffffffffffffffffffffff021916908373ffffffffffffffffffffffffffffffffffffffff16021790555091602001919060010190610a0b565b5b509050610a719190610a75565b5090565b5b80821115610a8e576000816000905550600101610a76565b5090565b6000819050919050565b610aa581610a92565b82525050565b6000602082019050610ac06000830184610a9c565b92915050565b7f4e487b7100000000000000000000000000000000000000000000000000000000600052602160045260246000fd5b60028110610b0657610b05610ac6565b5b50565b6000819050610b1782610af5565b919050565b6000610b2782610b09565b9050919050565b610b3781610b1c565b82525050565b6000602082019050610b526000830184610b2e565b92915050565b6000604051905090565b600080fd5b600080fd5b610b7581610a92565b8114610b8057600080fd5b50565b600081359050610b9281610b6c565b92915050565b600080fd5b6000601f19601f8301169050919050565b7f4e487b7100000000000000000000000000000000000000000000000000000000600052604160045260246000fd5b610be682610b9d565b810181811067ffffffffffffffff82111715610c0557610c04610bae565b5b80604052505050565b6000610c18610b58565b9050610c248282610bdd565b919050565b600067ffffffffffffffff821115610c4457610c43610bae565b5b602082029050602081019050919050565b600080fd5b6000610c6d610c6884610c29565b610c0e565b90508083825260208201905060208402830185811115610c9057610c8f610c55565b5b835b81811015610cb95780610ca58882610b83565b845260208401935050602081019050610c92565b5050509392505050565b600082601f830112610cd857610cd7610b98565b5b8135610ce8848260208601610c5a565b91505092915050565b60008060408385031215610d0857610d07610b62565b5b6000610d1685828601610b83565b925050602083013567ffffffffffffffff811115610d3757610d36610b67565b5b610d4385828601610cc3565b9150509250929050565b600080fd5b60008083601f840112610d6857610d67610b98565b5b8235905067ffffffffffffffff811115610d8557610d84610d4d565b5b602083019150836001820283011115610da157610da0610c55565b5b9250929050565b60008060208385031215610dbf57610dbe610b62565b5b600083013567ffffffffffffffff811115610ddd57610ddc610b67565b5b610de985828601610d52565b92509250509250929050565b600073ffffffffffffffffffffffffffffffffffffffff82169050919050565b6000610e2082610df5565b9050919050565b610e3081610e15565b82525050565b6000602082019050610e4b6000830184610e27565b92915050565b600080fd5b600067ffffffffffffffff821115610e7157610e70610bae565b5b610e7a82610b9d565b9050602081019050919050565b82818337600083830152505050565b6000610ea9610ea484610e56565b610c0e565b905082815260208101848484011115610ec557610ec4610e51565b5b610ed0848285610e87565b509392505050565b600082601f830112610eed57610eec610b98565b5b8135610efd848260208601610e96565b91505092915050565b600060208284031215610f1c57610f1b610b62565b5b600082013567ffffffffffffffff811115610f3a57610f39610b67565b5b610f4684828501610ed8565b91505092915050565b60008115159050919050565b610f6481610f4f565b82525050565b600081519050919050565b600082825260208201905092915050565b60005b83811015610fa4578082015181840152602081019050610f89565b60008484015250505050565b6000610fbb82610f6a565b610fc58185610f75565b9350610fd5818560208601610f86565b610fde81610b9d565b840191505092915050565b6000604082019050610ffe6000830185610f5b565b81810360208301526110108184610fb0565b90509392505050565b60006020828403121561102f5761102e610b62565b5b600061103d84828501610b83565b91505092915050565b600060408201905061105b6000830185610e27565b6110686020830184610e27565b9392505050565b60006060820190506110846000830186610a9c565b6110916020830185610a9c565b61109e6040830184610a9c565b949350505050565b6000819050919050565b6110b9816110a6565b82525050565b600067ffffffffffffffff82169050919050565b6110dc816110bf565b82525050565b600061ffff82169050919050565b6110f9816110e2565b82525050565b600063ffffffff82169050919050565b611118816110ff565b82525050565b600060a08201905061113360008301886110b0565b61114060208301876110d3565b61114d60408301866110f0565b61115a606083018561110f565b611167608083018461110f565b9695505050505050565b60008151905061118081610b6c565b92915050565b60006020828403121561119c5761119b610b62565b5b60006111aa84828501611171565b91505092915050565b7f4e487b7100000000000000000000000000000000000000000000000000000000600052601160045260246000fd5b60006111ed82610a92565b91506111f883610a92565b92508282039050818111156112105761120f6111b3565b5b92915050565b7f4e487b7100000000000000000000000000000000000000000000000000000000600052603260045260246000fd5b7f4e487b7100000000000000000000000000000000000000000000000000000000600052601260045260246000fd5b600061127f82610a92565b915061128a83610a92565b92508261129a57611299611245565b5b828206905092915050565b600081905092915050565b50565b60006112c06000836112a5565b91506112cb826112b0565b600082019050919050565b60006112e1826112b3565b915081905091905056fea264697066735822122042792774eb1c0a69cae6badf813a336df1a8eeb6a22832fbf8dab97aa1e13ae564736f6c63430008110033",
  "linkReferences": {},
  "deployedLinkReferences": {}
}